2020-12-14 14:04:36  [ main:1784 ] - [ INFO ]  020000000128710dae5a6c4cbf2feec519348de9083b89d2311c50bb2c3ce0310ae14eee030100000000ffffffff02b86e4101000000001976a914c0b0ed9b0cfa7873bfd2e5d76aac1ed991ee702988acb05ffb170000000017a914d50d7ed913495731f23d315b63c9cf405e861e858700000000
2020-12-14 14:04:36  [ main:1787 ] - [ INFO ]  {"jsonrpc": "1.0", "id": "curltest", "method": "signrawtransactionwithkey", "params": ["020000000128710dae5a6c4cbf2feec519348de9083b89d2311c50bb2c3ce0310ae14eee030100000000ffffffff02b86e4101000000001976a914c0b0ed9b0cfa7873bfd2e5d76aac1ed991ee702988acb05ffb170000000017a914d50d7ed913495731f23d315b63c9cf405e861e858700000000", ["cSV9GuRfeUiUnAnmBDCtuJ57SgJWT8ftSVtfCFSqoYyu1VqRugp9"],[{"txid":"03ee4ee10a31e03c2cbb501c31d2893b08e98d3419c5ee2fbf4c6c5aae0d7128","vout":1,"scriptPubKey":"a914d50d7ed913495731f23d315b63c9cf405e861e8587","redeemScript":"001439e6f3cb943e2ee3b327faf64fd51778239a8367","amount":4.23420000}]]}
2020-12-14 14:04:36  [ main:1798 ] - [ INFO ]  {"result":{"hex":"0200000000010128710dae5a6c4cbf2feec519348de9083b89d2311c50bb2c3ce0310ae14eee03010000001716001439e6f3cb943e2ee3b327faf64fd51778239a8367ffffffff02b86e4101000000001976a914c0b0ed9b0cfa7873bfd2e5d76aac1ed991ee702988acb05ffb170000000017a914d50d7ed913495731f23d315b63c9cf405e861e858702473044022033c8a3a306804a2aa5bafd563e94df513e2ea0131a05a13485466850abba5f850220113c119012dcfc963303886c17234167a921fcd7ec09d94e7087f93575ff1a57012103e7162d4099010454a6abb325dd38d33b0ed084f7a95313dbfe90813d0205302600000000","complete":true},"error":null,"id":"curltest"}
