2020-10-20 13:43:02  [ main:1051 ] - [ INFO ]  0200000001554a3afc395efb60df27e1a8362a2336784507263e6c33053c5e6de51fa223360000000000ffffffff01e0a3052a0100000017a914b5c19dda40f8e2714fdecb52e8eb42faf4b9a39d8700000000
2020-10-20 13:43:02  [ main:1054 ] - [ INFO ]  {"jsonrpc": "1.0", "id": "curltest", "method": "signrawtransactionwithkey", "params": ["0200000001554a3afc395efb60df27e1a8362a2336784507263e6c33053c5e6de51fa223360000000000ffffffff01e0a3052a0100000017a914b5c19dda40f8e2714fdecb52e8eb42faf4b9a39d8700000000", ["cUUxMVkafmr9cDzqAPU8NQkVDKFubVYGguTTYcvp1XwVf6KiSR2d"],[{"txid":"3623a21fe56d5e3c05336c3e2607457836232a36a8e127df60fb5e39fc3a4a55","vout":0,"scriptPubKey":"a914f51d9711641c9a785ba8e6a08893aee0e21a616387","redeemScript":"00144898ec01ea0e83f64d26f6cb18b5c1406a96a11a","amount":49.99981040}]]}
2020-10-20 13:43:02  [ main:1065 ] - [ INFO ]  {"result":{"hex":"02000000000101554a3afc395efb60df27e1a8362a2336784507263e6c33053c5e6de51fa2233600000000171600144898ec01ea0e83f64d26f6cb18b5c1406a96a11affffffff01e0a3052a0100000017a914b5c19dda40f8e2714fdecb52e8eb42faf4b9a39d870247304402203fd08a0024a67c9ec8b33cc31b76a796ef83f272c12f43ec3bde6968bfdf3bc70220517f4493cee153307e769403590198361776deea994e0f6c212adf51d80627cd012102f327eb81e05c87b7f79149ac643f5b2faab4d73ee5e00c3ff03e54ff14a0cd0100000000","complete":true},"error":null,"id":"curltest"}
2020-10-20 13:43:02  [ main:1076 ] - [ INFO ]  {"result":"1d2fe946b93c59db4e8939f0a1fd36bb0a7d6174b5e04866835149184fe18fc4","error":null,"id":"curltest"}
2020-10-20 13:54:39  [ main:1836 ] - [ INFO ]  0200000001554a3afc395efb60df27e1a8362a2336784507263e6c33053c5e6de51fa223360200000000ffffffff01000000000000000017a91438518b4df4ba005afce7cc8d471d314cdfec00528700000000
2020-10-20 13:54:39  [ main:1837 ] - [ INFO ]  {"jsonrpc": "1.0", "id": "curltest", "method": "signrawtransactionwithkey", "params": ["0200000001554a3afc395efb60df27e1a8362a2336784507263e6c33053c5e6de51fa223360200000000ffffffff01000000000000000017a91438518b4df4ba005afce7cc8d471d314cdfec00528700000000", ["cQFznqCeRbsXcJaVnRWzdntiTDXmKkVcUiurehFbSa99yG5PfGjP"],[{"txid":"3623a21fe56d5e3c05336c3e2607457836232a36a8e127df60fb5e39fc3a4a55","vout":2,"scriptPubKey":"a9147aed515a63f90235eb9cb5edc4d1df06586a5f4087","redeemScript":"001403d786558bb6869f1d4b83479f7b1b02350f8907","amount":0.00000540}]]}
2020-10-20 13:54:39  [ main:2245 ] - [ INFO ]  {"result":{"hex":"02000000000101554a3afc395efb60df27e1a8362a2336784507263e6c33053c5e6de51fa22336020000001716001403d786558bb6869f1d4b83479f7b1b02350f8907ffffffff01000000000000000017a91438518b4df4ba005afce7cc8d471d314cdfec005287024730440220285a787b32cd49e2496443eaab2e4a382282ed05a6e608dcf2ed62a4395c420a0220547f3e03770b30700e77bbbb8ffaa0a808644b7ea5f6decc8d9c3c3366f2e9040121020c442c5d2efc4eb2af7fef5dfdd6f7f6e61510da1dfd75e698db835bf84469a600000000","complete":true},"error":null,"id":"curltest"}
2020-10-20 13:54:40  [ main:2381 ] - [ INFO ]  {"result":"491a6dae81d591e25a90944e0455e5d2a3e00bddb6f8be3c58a3cc945f90b584","error":null,"id":"curltest"}
2020-10-20 13:57:18  [ main:876 ] - [ INFO ]  
2020-10-20 13:57:18  [ main:878 ] - [ INFO ]  {"jsonrpc": "1.0", "id": "curltest", "method": "signrawtransactionwithkey", "params": ["null", ["null"],[{"txid":"null","vout":null,"scriptPubKey":"null","amount":0}]]}
2020-10-20 13:57:18  [ main:894 ] - [ INFO ]  {"result":null,"error":{"code":-22,"message":"TX decode failed"},"id":"curltest"}
2020-10-20 13:57:41  [ main:847 ] - [ INFO ]  
2020-10-20 13:57:41  [ main:847 ] - [ INFO ]  {"jsonrpc": "1.0", "id": "curltest", "method": "signrawtransactionwithkey", "params": ["null", ["null"],[{"txid":"null","vout":null,"scriptPubKey":"null","amount":0}]]}
2020-10-20 13:57:41  [ main:877 ] - [ INFO ]  {"result":null,"error":{"code":-22,"message":"TX decode failed"},"id":"curltest"}
2020-10-20 13:57:56  [ main:1021 ] - [ INFO ]  
2020-10-20 13:57:56  [ main:1022 ] - [ INFO ]  {"jsonrpc": "1.0", "id": "curltest", "method": "signrawtransactionwithkey", "params": ["null", ["null"],[{"txid":"null","vout":null,"scriptPubKey":"null","amount":0}]]}
2020-10-20 13:57:56  [ main:1066 ] - [ INFO ]  {"result":null,"error":{"code":-22,"message":"TX decode failed"},"id":"curltest"}
