2020-09-17 14:54:07  [ main:24899 ] - [ INFO ]  020000000133173291aaa3f0381643c43d89a145fb041bdd9df4d2177d6c32a3bd6476a06d0000000000ffffffff01a01bb089000000001976a914c1aa8806da4d078531d6be7e47f891933f403daf88ac00000000
2020-09-17 14:54:07  [ main:24902 ] - [ INFO ]  {"jsonrpc": "1.0", "id": "curltest", "method": "signrawtransactionwithkey", "params": ["020000000133173291aaa3f0381643c43d89a145fb041bdd9df4d2177d6c32a3bd6476a06d0000000000ffffffff01a01bb089000000001976a914c1aa8806da4d078531d6be7e47f891933f403daf88ac00000000", ["cTPVdT1cZ5GwM1ySB1b2UMXDuFSjBcJwUP2CWi74HTWgDnU2U4te"],[{"txid":"6da07664bda3326c7d17d2f49ddd1b04fb45a1893dc4431638f0a3aa91321733","vout":0,"scriptPubKey":"76a914fb0cc21386d6f2540f4ad507175cbeeba9172d7088ac","amount":23.10022323}]]}
2020-09-17 14:54:07  [ main:24908 ] - [ INFO ]  {"result":{"hex":"020000000133173291aaa3f0381643c43d89a145fb041bdd9df4d2177d6c32a3bd6476a06d000000006a473044022045cc365d8b79375746965d86cc865005accce68c639b8548cf9e8e744bf7cc9202206935a3c98e5a5dd66b4e738b165f4d5e320b46f4c9df94a678c1eb7407e77b2e012102a97ef4a9cc96a6bca423ab8895aeaa5b70aabad5557610664b29265a4cb1db60ffffffff01a01bb089000000001976a914c1aa8806da4d078531d6be7e47f891933f403daf88ac00000000","complete":true},"error":null,"id":"curltest"}
2020-09-17 14:54:07  [ main:24915 ] - [ INFO ]  {"result":"07e10d255d16d52c4d005e09ff7241cda63fa1eb19c5fb72af42b1b58692dc92","error":null,"id":"curltest"}
2020-09-17 14:55:56  [ main:15024 ] - [ INFO ]  020000000122289bf409f2b70702752eb16784b3a2ba6700c6158cfdb468bdb851095dda9c0100000000ffffffff014019b221000000001976a914c1aa8806da4d078531d6be7e47f891933f403daf88ac00000000
2020-09-17 14:55:56  [ main:15026 ] - [ INFO ]  {"jsonrpc": "1.0", "id": "curltest", "method": "signrawtransactionwithkey", "params": ["020000000122289bf409f2b70702752eb16784b3a2ba6700c6158cfdb468bdb851095dda9c0100000000ffffffff014019b221000000001976a914c1aa8806da4d078531d6be7e47f891933f403daf88ac00000000", ["cPFTY2NKnbAuLHH7Ac3qApjcGLTthLfyD1ffgMD8YaEw9ay91tfp"],[{"txid":"9cda5d0951b8bd68b4fd8c15c60067baa2b38467b12e750207b7f209f49b2822","vout":1,"scriptPubKey":"76a9142979ffd9137a9bd74b33edb4b5f4bb10e85afa6b88ac","amount":5.65326136}]]}
2020-09-17 14:55:56  [ main:15035 ] - [ INFO ]  {"result":{"hex":"020000000122289bf409f2b70702752eb16784b3a2ba6700c6158cfdb468bdb851095dda9c010000006a473044022054de6c13b91f15a734fe7333efd36c84f760bdedbbdcfaea4fba0cc0232d0bc402206afa155107dcdbce316f5d23594a8f7d88a89a7caa964e385e7ebc8d06ce1c3c012102c34891d570fdacd9e1bebcfca95bf2b21ef5ab01335560fe518ef17d7e6b7f7dffffffff014019b221000000001976a914c1aa8806da4d078531d6be7e47f891933f403daf88ac00000000","complete":true},"error":null,"id":"curltest"}
2020-09-17 14:55:56  [ main:15042 ] - [ INFO ]  {"result":"b8647953e010ec4f93b0769a4404bb26ca7464107a72729e3b2ec9194746671b","error":null,"id":"curltest"}
2020-09-17 14:58:48  [ main:9725 ] - [ INFO ]  02000000011b67464719c92e3b9e72727a106474ca26bb04449a76b0934fec10e0537964b80000000000ffffffff0130f2b121000000001976a914c1aa8806da4d078531d6be7e47f891933f403daf88ac00000000
2020-09-17 14:58:48  [ main:9727 ] - [ INFO ]  {"jsonrpc": "1.0", "id": "curltest", "method": "signrawtransactionwithkey", "params": ["02000000011b67464719c92e3b9e72727a106474ca26bb04449a76b0934fec10e0537964b80000000000ffffffff0130f2b121000000001976a914c1aa8806da4d078531d6be7e47f891933f403daf88ac00000000", ["cRD15RdBUysV8VwQbtR6hmEhDgF5DFbz8jaa1woFqGrg47WvbRrs"],[{"txid":"b8647953e010ec4f93b0769a4404bb26ca7464107a72729e3b2ec9194746671b","vout":0,"scriptPubKey":"76a914c1aa8806da4d078531d6be7e47f891933f403daf88ac","amount":5.65320000}]]}
2020-09-17 14:58:48  [ main:9736 ] - [ INFO ]  {"result":{"hex":"02000000011b67464719c92e3b9e72727a106474ca26bb04449a76b0934fec10e0537964b8000000006a473044022004d9eccdb408951d1ac8b7ee62b0d0f17320e63e54e2d34583b6473b4f1f83b9022075394373b3e1a8b1d8c618a26b5d43a2a7d72a42910ab58a30252dde95b22688012102c696cc0297a90981e419b1d7be284f6cdac8b792c0b3d4cd3d688510a625a78dffffffff0130f2b121000000001976a914c1aa8806da4d078531d6be7e47f891933f403daf88ac00000000","complete":true},"error":null,"id":"curltest"}
2020-09-17 14:58:48  [ main:9743 ] - [ INFO ]  {"result":"2a2056947a1673d605dfbfbe8d3251a2ce18af7799bc54b9967d91d75718cb68","error":null,"id":"curltest"}
2020-09-17 15:42:07  [ main:23119 ] - [ INFO ]  02000000013cd24d8a42ba549ebd61e81bda70dbf17f049f4453313bbfd081f5f55da1489c0100000000ffffffff01d0fb9b8d000000001976a914c1aa8806da4d078531d6be7e47f891933f403daf88ac00000000
2020-09-17 15:42:07  [ main:23121 ] - [ INFO ]  {"jsonrpc": "1.0", "id": "curltest", "method": "signrawtransactionwithkey", "params": ["02000000013cd24d8a42ba549ebd61e81bda70dbf17f049f4453313bbfd081f5f55da1489c0100000000ffffffff01d0fb9b8d000000001976a914c1aa8806da4d078531d6be7e47f891933f403daf88ac00000000", ["cVDtRuSQVKMqKwpNb9ENRuy5GLGFRYAsRMfQkMvBonJAfbVtpQpm"],[{"txid":"9c48a15df5f581d0bf3b3153449f047ff1db70da1be861bd9e54ba428a4dd23c","vout":1,"scriptPubKey":"76a91493d86cf3196f2330256bc6060724d1b4825bb04688ac","amount":23.75815956}]]}
2020-09-17 15:42:07  [ main:23151 ] - [ INFO ]  {"result":{"hex":"02000000013cd24d8a42ba549ebd61e81bda70dbf17f049f4453313bbfd081f5f55da1489c010000006a473044022035c1b443c6b1bc09aacc74f83329973adbc12562e678e3c8c58a79752fbd8f0b022044a1ae809a2bf5d4c9be888bb4617b1f88f74d56f512ea3699cf54eafd8cd1930121026a70c5e4c5fb49513ff0043c185a757ecb06d4153e1fcdeca0e3a377cce41c46ffffffff01d0fb9b8d000000001976a914c1aa8806da4d078531d6be7e47f891933f403daf88ac00000000","complete":true},"error":null,"id":"curltest"}
2020-09-17 15:42:07  [ main:23177 ] - [ INFO ]  {"result":"e0fba0856e328a98c65c916f504c335a60bf67dd2826c074e4c6440d644f2ca0","error":null,"id":"curltest"}
2020-09-17 15:42:38  [ main:26215 ] - [ INFO ]  02000000014b1a7f175d4160220619bafc0e9e94fd494b98da1b0ca9953ca8150a0bb61bb70100000000ffffffff014079807a000000001976a914c1aa8806da4d078531d6be7e47f891933f403daf88ac00000000
2020-09-17 15:42:38  [ main:26217 ] - [ INFO ]  {"jsonrpc": "1.0", "id": "curltest", "method": "signrawtransactionwithkey", "params": ["02000000014b1a7f175d4160220619bafc0e9e94fd494b98da1b0ca9953ca8150a0bb61bb70100000000ffffffff014079807a000000001976a914c1aa8806da4d078531d6be7e47f891933f403daf88ac00000000", ["cSsGCuYMHuDi4yFUxJTvRuQ4Hsd2GEd42oRVHtDjh2Tq1M1f2rTG"],[{"txid":"b71bb60b0a15a83c95a90c1bda984b49fd949e0efcba19062260415d177f1a4b","vout":1,"scriptPubKey":"76a914f3e531b9b8efdae9a6aeffe7e287daff7d71544188ac","amount":20.55242289}]]}
2020-09-17 15:42:38  [ main:26223 ] - [ INFO ]  {"result":{"hex":"02000000014b1a7f175d4160220619bafc0e9e94fd494b98da1b0ca9953ca8150a0bb61bb7010000006a47304402201e3f4792d39e4ee10973a577005881f125bf7ae91ea52ab7cf7ba0e8f43a272c02201c6ffe22caa56431d2d1d636c1bdd63d73fa9734803791ddd9c43986169b56fc0121032c37942324625e0bf8c9702ff7e7d86653528b85a79ff77259d485415e46800effffffff014079807a000000001976a914c1aa8806da4d078531d6be7e47f891933f403daf88ac00000000","complete":true},"error":null,"id":"curltest"}
2020-09-17 15:42:38  [ main:26229 ] - [ INFO ]  {"result":"a75c22d60c2f854d30736e3e992b24cecf499e69bd4763bd7411fef46647dcf8","error":null,"id":"curltest"}
2020-09-17 16:05:23  [ main:99481 ] - [ INFO ]  02000000014b47499e903ad72d2a3d8476f1ff397fc7fd2a811fa883ec9b53604d1d56bb370100000000ffffffff0110131e41000000001976a914c1aa8806da4d078531d6be7e47f891933f403daf88ac00000000
2020-09-17 16:05:23  [ main:99483 ] - [ INFO ]  {"jsonrpc": "1.0", "id": "curltest", "method": "signrawtransactionwithkey", "params": ["02000000014b47499e903ad72d2a3d8476f1ff397fc7fd2a811fa883ec9b53604d1d56bb370100000000ffffffff0110131e41000000001976a914c1aa8806da4d078531d6be7e47f891933f403daf88ac00000000", ["cSUVP5eBCGG8Bx2JNjmK1WwgFafKF8UJe44t6fHn41vWM5TrNfYZ"],[{"txid":"37bb561d4d60539bec83a81f812afdc77f39fff176843d2a2dd73a909e49474b","vout":1,"scriptPubKey":"76a914e2030613c0cd32aa863229930c713172fee8d5f388ac","amount":10.92497061}]]}
2020-09-17 16:05:23  [ main:99511 ] - [ INFO ]  {"result":{"hex":"02000000014b47499e903ad72d2a3d8476f1ff397fc7fd2a811fa883ec9b53604d1d56bb37010000006a4730440220743ae6d7363e83484c9d12596f5ef497bf840658d776bdd1fe9703616699d6d3022069f2d4525442a0226902875f27cc54451ce0eade9877783af9de44a01b878cdd012103bb14d54cea10dc24abb9c7dcbea9ccbac50e7cfaf5d64c3924f4620c22145d5cffffffff0110131e41000000001976a914c1aa8806da4d078531d6be7e47f891933f403daf88ac00000000","complete":true},"error":null,"id":"curltest"}
2020-09-17 16:05:23  [ main:99609 ] - [ INFO ]  {"result":"e0d0a6a26745d34d1e690f604067cce3f9c6242f9d97e94f55309febe8da2f68","error":null,"id":"curltest"}
