2020-10-14 13:40:23  [ main:392 ] - [ INFO ]  {"result":"3e834f83980d36bd7b4273e0a58a8913251d40a7504244eb0dac514c5754a597","error":null,"id":"curltest"}
2020-10-14 13:46:45  [ main:461 ] - [ INFO ]  {"result":"f9ec1636ea9f1d9e625d6026132eff397fd6cc180981552eece0a5b329218694","error":null,"id":"curltest"}
2020-10-14 13:46:56  [ main:414 ] - [ INFO ]  {"result":"2ea3fea73c6adc21f46b5820af1c7b615e70104e7f9c9049b916ea6ce27dff03","error":null,"id":"curltest"}
2020-10-14 13:47:02  [ main:395 ] - [ INFO ]  {"result":"e980919bb4f972c7590d6f449b6bcdcd06761266e12ff25d3a859e92cc8253e5","error":null,"id":"curltest"}
2020-10-14 13:56:38  [ main:16627 ] - [ INFO ]  02000000013112169d4ac92661536c3511824b620dd5182b7e21a47d81ef0e26fab17817220100000000ffffffff01c0cdcb53020000001976a914c1aa8806da4d078531d6be7e47f891933f403daf88ac00000000
2020-10-14 13:56:38  [ main:16629 ] - [ INFO ]  {"jsonrpc": "1.0", "id": "curltest", "method": "signrawtransactionwithkey", "params": ["02000000013112169d4ac92661536c3511824b620dd5182b7e21a47d81ef0e26fab17817220100000000ffffffff01c0cdcb53020000001976a914c1aa8806da4d078531d6be7e47f891933f403daf88ac00000000", ["cSUVP5eBCGG8Bx2JNjmK1WwgFafKF8UJe44t6fHn41vWM5TrNfYZ"],[{"txid":"221778b1fa260eef817da4217e2b18d50d624b8211356c536126c94a9d161231","vout":1,"scriptPubKey":"76a914e2030613c0cd32aa863229930c713172fee8d5f388ac","amount":99.95804935}]]}
2020-10-14 13:56:38  [ main:16638 ] - [ INFO ]  {"result":{"hex":"02000000013112169d4ac92661536c3511824b620dd5182b7e21a47d81ef0e26fab1781722010000006a47304402201f47df2b8342ed2f15f883110d0ddc8d6a0e1d4f50ae7de71ec907263fbfbad402205ac879bd0f79de9cc4fe0c70256b507aec2d68a3901029873aa1f9772800220c012103bb14d54cea10dc24abb9c7dcbea9ccbac50e7cfaf5d64c3924f4620c22145d5cffffffff01c0cdcb53020000001976a914c1aa8806da4d078531d6be7e47f891933f403daf88ac00000000","complete":true},"error":null,"id":"curltest"}
2020-10-14 13:56:38  [ main:16646 ] - [ INFO ]  {"result":"8f7d48f8118c95ba76f937d07ae489cfbcf92744dd2e00d549adda4a82b4e54b","error":null,"id":"curltest"}
2020-10-14 13:57:25  [ main:39844 ] - [ INFO ]  020000000151b777ae14a151ac6e0663db2815cafeba6338a3cb1ed680adb8bdfb39c0786b0000000000ffffffff0100f05492000000001976a914c1aa8806da4d078531d6be7e47f891933f403daf88ac00000000
2020-10-14 13:57:25  [ main:39845 ] - [ INFO ]  {"jsonrpc": "1.0", "id": "curltest", "method": "signrawtransactionwithkey", "params": ["020000000151b777ae14a151ac6e0663db2815cafeba6338a3cb1ed680adb8bdfb39c0786b0000000000ffffffff0100f05492000000001976a914c1aa8806da4d078531d6be7e47f891933f403daf88ac00000000", ["cNP2X9xCxq3U7SUBeaNUngq1tUzHBey1bt6bBGtN6PcsRcFQkrXe"],[{"txid":"6b78c039fbbdb8ad80d61ecba33863bafeca1528db63066eac51a114ae77b751","vout":0,"scriptPubKey":"76a914dd9fe5ff20120260190c1f7d2ebdd1fe5f92c1fd88ac","amount":24.55042232}]]}
2020-10-14 13:57:25  [ main:39858 ] - [ INFO ]  {"result":{"hex":"020000000151b777ae14a151ac6e0663db2815cafeba6338a3cb1ed680adb8bdfb39c0786b000000006a47304402204c6c41d75116432c349ce1fa839767a6283305bde094eba9a72c56fa5682629102203aa8309e4e6de0c1d1f9e38e1fcadc172e474390f5abde924d714b0aea4f787f01210218c11ceb9153e826c78001ac1af10b720c7e47da4ef9bd86f31cf16033a17a65ffffffff0100f05492000000001976a914c1aa8806da4d078531d6be7e47f891933f403daf88ac00000000","complete":true},"error":null,"id":"curltest"}
2020-10-14 13:57:25  [ main:39874 ] - [ INFO ]  {"result":"3c09b7fed87b78b1e7487f9e83b5121b70dc75f78ccab154ef400eb8677d3859","error":null,"id":"curltest"}
2020-10-14 13:58:03  [ main:31695 ] - [ INFO ]  02000000015844652891871c6bcb619566872cc17c10cd477d29b5681ab6119c87ff27668b0100000000ffffffff0120710e92000000001976a914c1aa8806da4d078531d6be7e47f891933f403daf88ac00000000
2020-10-14 13:58:03  [ main:31695 ] - [ INFO ]  {"jsonrpc": "1.0", "id": "curltest", "method": "signrawtransactionwithkey", "params": ["02000000015844652891871c6bcb619566872cc17c10cd477d29b5681ab6119c87ff27668b0100000000ffffffff0120710e92000000001976a914c1aa8806da4d078531d6be7e47f891933f403daf88ac00000000", ["cVqFb4KGeF8TTPx44CyUsu2GD9VAL82PkuRRoUiNry2tJLmicgmC"],[{"txid":"8b6627ff879c11b61a68b5297d47cd107cc12c87669561cb6b1c879128654458","vout":1,"scriptPubKey":"76a91473c359607f5d8f336760614c449b1bb28adef07888ac","amount":24.50430076}]]}
2020-10-14 13:58:03  [ main:31702 ] - [ INFO ]  {"result":{"hex":"02000000015844652891871c6bcb619566872cc17c10cd477d29b5681ab6119c87ff27668b010000006a473044022033a781acaf28c01c94ee9f0e8ff8cf5a7c29c9013237dd0474d9b8fa85c5856702202bbf3cbb6ff0fb9f3cd1c1a1b8de85abe057a7d8bc85e09a0533f0c0e856266d012102dc7fe5e3efb9c4c22781d72d564d9884ea96e94ae99c0a2fdb09351785ede9d5ffffffff0120710e92000000001976a914c1aa8806da4d078531d6be7e47f891933f403daf88ac00000000","complete":true},"error":null,"id":"curltest"}
2020-10-14 13:58:03  [ main:31712 ] - [ INFO ]  {"result":"9e051dfefee29280d108eff1753d17345892eb4ccb796d31fc4814bd6c061e3f","error":null,"id":"curltest"}
2020-10-14 14:09:17  [ main:32112 ] - [ INFO ]  02000000015b90b7e9a3a1fc4b789c84db0a2eb39a483e2f66c53d78a558c0a38bc6df497c0100000000ffffffff01a00c3e92000000001976a914e2030613c0cd32aa863229930c713172fee8d5f388ac00000000
2020-10-14 14:09:17  [ main:32115 ] - [ INFO ]  {"jsonrpc": "1.0", "id": "curltest", "method": "signrawtransactionwithkey", "params": ["02000000015b90b7e9a3a1fc4b789c84db0a2eb39a483e2f66c53d78a558c0a38bc6df497c0100000000ffffffff01a00c3e92000000001976a914e2030613c0cd32aa863229930c713172fee8d5f388ac00000000", ["cMh8MDjjUtS81EBGPBiM89dX9atX3pjJ2rvUtfocNvddyPKTbMzD"],[{"txid":"7c49dfc68ba3c058a5783dc5662f3e489ab32e0adb849c784bfca1a3e9b7905b","vout":1,"scriptPubKey":"76a914a496916b3560c53693b730643749408f0d57c0ce88ac","amount":24.53543438}]]}
2020-10-14 14:09:17  [ main:32121 ] - [ INFO ]  {"result":{"hex":"02000000015b90b7e9a3a1fc4b789c84db0a2eb39a483e2f66c53d78a558c0a38bc6df497c010000006a473044022002f9510aa3ffc217a77e6930f15501daabaf96d1ca157796d0b249978a9d1ca602202faf385e9fa924358ae77718e707e02b759bb482b3e0eca27303801b20809ba201210318e6fb6e3bef5a2cff562e620d14a4e9fb3a5105dc64be1ef5bb7b27ab633cb3ffffffff01a00c3e92000000001976a914e2030613c0cd32aa863229930c713172fee8d5f388ac00000000","complete":true},"error":null,"id":"curltest"}
2020-10-14 14:09:17  [ main:32128 ] - [ INFO ]  {"result":"16852696111535a8d2d73ec5a0e005820b696fb360a0489bc30b1656a9262c48","error":null,"id":"curltest"}
