2020-10-19 16:14:03  [ main:1845 ] - [ INFO ]  020000000178e1e770c161b765aa83af4e14e2cf21785bf9d27b70a4adc6e7c39c4f8b71a70300000000ffffffff01e07b9a3b000000001600140f84607baba2b605bf7769a95744da62362d65fe00000000
2020-10-19 16:14:03  [ main:1849 ] - [ INFO ]  {"jsonrpc": "1.0", "id": "curltest", "method": "signrawtransactionwithkey", "params": ["020000000178e1e770c161b765aa83af4e14e2cf21785bf9d27b70a4adc6e7c39c4f8b71a70300000000ffffffff01e07b9a3b000000001600140f84607baba2b605bf7769a95744da62362d65fe00000000", ["cUUxMVkafmr9cDzqAPU8NQkVDKFubVYGguTTYcvp1XwVf6KiSR2d"],[{"txid":"a7718b4f9cc3e7c6ada4707bd2f95b7821cfe2144eaf83aa65b761c170e7e178","vout":3,"scriptPubKey":"a914f51d9711641c9a785ba8e6a08893aee0e21a616387","redeemScript":"00144898ec01ea0e83f64d26f6cb18b5c1406a96a11a","amount":9.99987678}]]}
2020-10-19 16:14:03  [ main:1891 ] - [ INFO ]  {"result":{"hex":"0200000000010178e1e770c161b765aa83af4e14e2cf21785bf9d27b70a4adc6e7c39c4f8b71a703000000171600144898ec01ea0e83f64d26f6cb18b5c1406a96a11affffffff01e07b9a3b000000001600140f84607baba2b605bf7769a95744da62362d65fe02473044022033a03080cd3f588d95d32d6ed24519f855bbd91f666f2d202b4c88c0533ec1cd02202e09a3ed46d3f84d447865173b3531d184fbd7a33cd5d7b2724431441fba4285012102f327eb81e05c87b7f79149ac643f5b2faab4d73ee5e00c3ff03e54ff14a0cd0100000000","complete":true},"error":null,"id":"curltest"}
2020-10-19 16:14:03  [ main:1935 ] - [ INFO ]  {"result":"9d1a9ecaa24c2b2156274a810fe50505be8c59f68efb9215e4386fd829525fd5","error":null,"id":"curltest"}
