2020-12-11 17:01:52  [ main:1682 ] - [ INFO ]  02000000011ba75c72e1ad7187f4c390ee1ca08b94a5c2ac90a6bfe6a7ecbd46d26cd051020000000000ffffffff02a07e7804000000001976a914b5ea232f872ed57b86131d769a515d3128b513d388ac30698a90000000001976a91459faeb0a4942472c99e8d9d090716d1bd6736d3388ac00000000
2020-12-11 17:01:52  [ main:1696 ] - [ INFO ]  {"jsonrpc": "1.0", "id": "curltest", "method": "signrawtransactionwithkey", "params": ["02000000011ba75c72e1ad7187f4c390ee1ca08b94a5c2ac90a6bfe6a7ecbd46d26cd051020000000000ffffffff02a07e7804000000001976a914b5ea232f872ed57b86131d769a515d3128b513d388ac30698a90000000001976a91459faeb0a4942472c99e8d9d090716d1bd6736d3388ac00000000", ["cUHBhATaU6p5oaUEZXm9mSLAqAAc9V1mmvyLnNumMGfVHusQf9ga"],[{"txid":"0251d06cd246bdeca7e6bfa690acc2a5948ba01cee90c3f48771ade1725ca71b","vout":0,"scriptPubKey":"76a91459faeb0a4942472c99e8d9d090716d1bd6736d3388ac","amount":25.00000000}]]}
2020-12-11 17:01:52  [ main:1823 ] - [ INFO ]  {"result":{"hex":"02000000011ba75c72e1ad7187f4c390ee1ca08b94a5c2ac90a6bfe6a7ecbd46d26cd05102000000006a4730440220402abc4cb7a0fd4ea9a2834419f44fd22e8d64748702346ddc4d5412e92fad1902204c13f5d98767619b25a4cfa48d54137774c00f2d72d8fcd90099c637fe7ad2f2412102b58a37873b2f279228eb378972c5c2af0e9ef9d6e25711a5a733a42c1382f28cffffffff02a07e7804000000001976a914b5ea232f872ed57b86131d769a515d3128b513d388ac30698a90000000001976a91459faeb0a4942472c99e8d9d090716d1bd6736d3388ac00000000","complete":true},"error":null,"id":"curltest"}
