2020-12-14 12:34:18  [ main:2339 ] - [ INFO ]  02000000019ede5a1b363022c6748b5f1e59ac20f377197250ebc7a7882dbd8190f30309030000000000ffffffff025cd18605000000001976a914b5ea232f872ed57b86131d769a515d3128b513d388acb0cbb91f000000001976a91459faeb0a4942472c99e8d9d090716d1bd6736d3388ac00000000
2020-12-14 12:34:18  [ main:2346 ] - [ INFO ]  {"jsonrpc": "1.0", "id": "curltest", "method": "signrawtransactionwithkey", "params": ["02000000019ede5a1b363022c6748b5f1e59ac20f377197250ebc7a7882dbd8190f30309030000000000ffffffff025cd18605000000001976a914b5ea232f872ed57b86131d769a515d3128b513d388acb0cbb91f000000001976a91459faeb0a4942472c99e8d9d090716d1bd6736d3388ac00000000", ["cUHBhATaU6p5oaUEZXm9mSLAqAAc9V1mmvyLnNumMGfVHusQf9ga"],[{"txid":"030903f39081bd2d88a7c7eb50721977f320ac591e5f8b74c62230361b5ade9e","vout":0,"scriptPubKey":"76a91459faeb0a4942472c99e8d9d090716d1bd6736d3388ac","amount":6.25000000}]]}
2020-12-14 12:34:18  [ main:2356 ] - [ INFO ]  {"result":{"hex":"02000000019ede5a1b363022c6748b5f1e59ac20f377197250ebc7a7882dbd8190f3030903000000006a47304402205fc5273fcf1aa482484d6d069f1c3b633ed68dbe128a5b7fd4919455eab17a0a022022d2c30b696512757889ec95457ea4938124d410a36c2572da8d95e5196507b8412102b58a37873b2f279228eb378972c5c2af0e9ef9d6e25711a5a733a42c1382f28cffffffff025cd18605000000001976a914b5ea232f872ed57b86131d769a515d3128b513d388acb0cbb91f000000001976a91459faeb0a4942472c99e8d9d090716d1bd6736d3388ac00000000","complete":true},"error":null,"id":"curltest"}
