2020-12-10 18:51:40  [ main:1415 ] - [ INFO ]  020000000161049255981de68dc94e6c45bb8d654520102616df29d3ac1238e0f8a0f5f5010000000000ffffffff0260e53101000000001976a914b5ea232f872ed57b86131d769a515d3128b513d388ac308c4f49000000001976a91459faeb0a4942472c99e8d9d090716d1bd6736d3388ac00000000
2020-12-10 18:51:40  [ main:1416 ] - [ INFO ]  {"jsonrpc": "1.0", "id": "curltest", "method": "signrawtransactionwithkey", "params": ["020000000161049255981de68dc94e6c45bb8d654520102616df29d3ac1238e0f8a0f5f5010000000000ffffffff0260e53101000000001976a914b5ea232f872ed57b86131d769a515d3128b513d388ac308c4f49000000001976a91459faeb0a4942472c99e8d9d090716d1bd6736d3388ac00000000", ["cUHBhATaU6p5oaUEZXm9mSLAqAAc9V1mmvyLnNumMGfVHusQf9ga"],[{"txid":"01f5f5a0f8e03812acd329df1626102045658dbb456c4ec98de61d9855920461","vout":0,"scriptPubKey":"76a91459faeb0a4942472c99e8d9d090716d1bd6736d3388ac","amount":12.50000000}]]}
2020-12-10 18:51:40  [ main:1451 ] - [ INFO ]  {"result":{"hex":"020000000161049255981de68dc94e6c45bb8d654520102616df29d3ac1238e0f8a0f5f501000000006a4730440220795b35623d691a00c7e94ee2bbd7c13baaabd74cccb6aa598dbe756de7599c4f022008b41c0ee4176cef89f67e29cf79ee9a0f54ccb1a43c9e2f6c2eda841949b13f412102b58a37873b2f279228eb378972c5c2af0e9ef9d6e25711a5a733a42c1382f28cffffffff0260e53101000000001976a914b5ea232f872ed57b86131d769a515d3128b513d388ac308c4f49000000001976a91459faeb0a4942472c99e8d9d090716d1bd6736d3388ac00000000","complete":true},"error":null,"id":"curltest"}
