2020-12-10 15:26:38  [ main:3433 ] - [ INFO ]  020000000161049255981de68dc94e6c45bb8d654520102616df29d3ac1238e0f8a0f5f5010000000000ffffffff02949b6001000000001976a914b5ea232f872ed57b86131d769a515d3128b513d388ac10db2049000000001976a91459faeb0a4942472c99e8d9d090716d1bd6736d3388ac00000000
2020-12-10 15:26:38  [ main:3441 ] - [ INFO ]  {"jsonrpc": "1.0", "id": "curltest", "method": "signrawtransactionwithkey", "params": ["020000000161049255981de68dc94e6c45bb8d654520102616df29d3ac1238e0f8a0f5f5010000000000ffffffff02949b6001000000001976a914b5ea232f872ed57b86131d769a515d3128b513d388ac10db2049000000001976a91459faeb0a4942472c99e8d9d090716d1bd6736d3388ac00000000", ["cUHBhATaU6p5oaUEZXm9mSLAqAAc9V1mmvyLnNumMGfVHusQf9ga"],[{"txid":"01f5f5a0f8e03812acd329df1626102045658dbb456c4ec98de61d9855920461","vout":0,"scriptPubKey":"76a91459faeb0a4942472c99e8d9d090716d1bd6736d3388ac","amount":12.50000000}]]}
2020-12-10 15:26:39  [ main:3930 ] - [ INFO ]  {"result":{"hex":"020000000161049255981de68dc94e6c45bb8d654520102616df29d3ac1238e0f8a0f5f501000000006a4730440220359b82a938e25053c3e95b86f1e266b01a9f96f540fd1352bdc396e77a0960ac0220112452716d4639b53677d339c5074c34cc53d82b2225db0eab0a2daa23c459f1412102b58a37873b2f279228eb378972c5c2af0e9ef9d6e25711a5a733a42c1382f28cffffffff02949b6001000000001976a914b5ea232f872ed57b86131d769a515d3128b513d388ac10db2049000000001976a91459faeb0a4942472c99e8d9d090716d1bd6736d3388ac00000000","complete":true},"error":null,"id":"curltest"}
2020-12-10 15:36:48  [ main:1751 ] - [ INFO ]  02000000011e5cfc18372ccb83fc2a9e5a72e303e1e678d6c01d340c26df1ede1cf81c1a010000000000ffffffff02ec8bf901000000001976a91459e2fda1f209ccf61b5dd41d98402cca2a9f84b488ac00b2a610000000001976a9144f01dd7a2ae78c10274a5b9816266d840338a84188ac00000000
2020-12-10 15:36:48  [ main:1753 ] - [ INFO ]  {"jsonrpc": "1.0", "id": "curltest", "method": "signrawtransactionwithkey", "params": ["02000000011e5cfc18372ccb83fc2a9e5a72e303e1e678d6c01d340c26df1ede1cf81c1a010000000000ffffffff02ec8bf901000000001976a91459e2fda1f209ccf61b5dd41d98402cca2a9f84b488ac00b2a610000000001976a9144f01dd7a2ae78c10274a5b9816266d840338a84188ac00000000", ["cQfVLm79yiMJbbo6ZWXQ2afBZNskCrDov7QjHfrkJoRNmMvGLvra"],[{"txid":"011a1cf81cde1edf260c341dc0d678e6e103e3725a9e2afc83cb2c3718fc5c1e","vout":0,"scriptPubKey":"76a9144f01dd7a2ae78c10274a5b9816266d840338a84188ac","amount":3.12500258}]]}
2020-12-10 15:36:48  [ main:1762 ] - [ INFO ]  {"result":{"hex":"02000000011e5cfc18372ccb83fc2a9e5a72e303e1e678d6c01d340c26df1ede1cf81c1a01000000006a4730440220714bdd8b805c27724639db4a3dd2542a847f2d580f93bfc6613d9896bc239446022047ebe6388489cc83a04aa9c542e5851809a2c2f4e32f3603149084ad8fd3d9e8412103d4f04a374321f0b5e8db954f0792187e94ef7fdaedc69523091339f9e9d3a434ffffffff02ec8bf901000000001976a91459e2fda1f209ccf61b5dd41d98402cca2a9f84b488ac00b2a610000000001976a9144f01dd7a2ae78c10274a5b9816266d840338a84188ac00000000","complete":true},"error":null,"id":"curltest"}
2020-12-10 15:36:49  [ main:2013 ] - [ INFO ]  {"result":"3b97c4b96cf2ac36d47482fbe380efef6f7cb23714ce0c8c28f5c484f9c926f8","error":null,"id":"curltest"}
2020-12-10 18:51:00  [ main:2349 ] - [ INFO ]  02000000010d41b8b9693241cb7e9d9674221278822e383c2ff7ba1d0f1ab54f512b6662010100000000ffffffff0258293904000000001976a91459e2fda1f209ccf61b5dd41d98402cca2a9f84b488ac90c6c72c000000001976a91473246501392346da5fd435547b8a96e4d4b2e66788ac00000000
2020-12-10 18:51:00  [ main:2356 ] - [ INFO ]  {"jsonrpc": "1.0", "id": "curltest", "method": "signrawtransactionwithkey", "params": ["02000000010d41b8b9693241cb7e9d9674221278822e383c2ff7ba1d0f1ab54f512b6662010100000000ffffffff0258293904000000001976a91459e2fda1f209ccf61b5dd41d98402cca2a9f84b488ac90c6c72c000000001976a91473246501392346da5fd435547b8a96e4d4b2e66788ac00000000", ["cQXeytNTocPjbbvcHCJdTgZAZivcKGXVP2M2yD9KytNwcFsK1nZh"],[{"txid":"0162662b514fb51a0f1dbaf72f3c382e8278122274969d7ecb413269b9b8410d","vout":1,"scriptPubKey":"76a91473246501392346da5fd435547b8a96e4d4b2e66788ac","amount":8.22153946}]]}
2020-12-10 18:51:00  [ main:2424 ] - [ INFO ]  {"result":{"hex":"02000000010d41b8b9693241cb7e9d9674221278822e383c2ff7ba1d0f1ab54f512b666201010000006a47304402201e5cf3052827d0c61b9b2b4d23751bd925cfd833888ca059919b6729b816dc9702205fc086c14b2b93459955ea3e776c972777c58252c0ee1ed502eae55a86b366c6412103cfe918ae5f0dee9438bd3363d346f3fa1165f148be2d311e407a45a4830c304effffffff0258293904000000001976a91459e2fda1f209ccf61b5dd41d98402cca2a9f84b488ac90c6c72c000000001976a91473246501392346da5fd435547b8a96e4d4b2e66788ac00000000","complete":true},"error":null,"id":"curltest"}
