2020-09-16 11:51:46  [ main:1207 ] - [ INFO ]  {"result":"e199e9d5935f9a6a822f584adf6637aa4a83299f16f81ae9b31f26b6ad392c1a","error":null,"id":"curltest"}
2020-09-16 13:56:45  [ main:1025 ] - [ INFO ]  {"result":"208d8e66a37e921562788e5b55321c7296becb1c6759418e871252877fb4f973","error":null,"id":"curltest"}
2020-09-16 14:45:35  [ main:1271 ] - [ INFO ]  020000000150678a0a8523dc713ba939551ff236ec6b67320c459066ccc337a2d965e85d4d0000000000ffffffff0100f90295000000001976a9147169b08e76451115bf7d75869b984ed74b0d88e188ac00000000
2020-09-16 14:45:35  [ main:1273 ] - [ INFO ]  {"jsonrpc": "1.0", "id": "curltest", "method": "signrawtransactionwithkey", "params": ["020000000150678a0a8523dc713ba939551ff236ec6b67320c459066ccc337a2d965e85d4d0000000000ffffffff0100f90295000000001976a9147169b08e76451115bf7d75869b984ed74b0d88e188ac00000000", ["cVMyngYeirBLfE6W3mXaKxFNjmyYV52jbTqiW5o9EeReq1f6SjyQ"],[{"txid":"4d5de865d9a237c3cc6690450c32676bec36f21f5539a93b71dc23850a8a6750","vout":0,"scriptPubKey":"2102ca08b3423068122ab5f70733ddaa062dc19d1bece8f6f0ab6bf5e7d16bf62ab4ac","amount":25.00001290}]]}
2020-09-16 14:45:35  [ main:1305 ] - [ INFO ]  {"result":{"hex":"020000000150678a0a8523dc713ba939551ff236ec6b67320c459066ccc337a2d965e85d4d000000004847304402203a2c09de524451e3ef669597482d4d9b39eff0a32c844ae66a28c3d0da84c9df02203409d381a45e4cba0a911a94aaa3b798a762320457067d4334c324db95b7903841ffffffff0100f90295000000001976a9147169b08e76451115bf7d75869b984ed74b0d88e188ac00000000","complete":true},"error":null,"id":"curltest"}
2020-09-16 14:45:35  [ main:1314 ] - [ INFO ]  {"result":"3aab2f7cc8d86ae7a36bb8c34dd8ff63f93db956100e4c3620925ac03e67f626","error":null,"id":"curltest"}
2020-09-16 14:47:22  [ main:967 ] - [ INFO ]  020000000126f6673ec05a9220364c0e1056b93df963ffd84dc3b86ba3e76ad8c87c2fab3a0000000000ffffffff01f0d10295000000001976a91459e2fda1f209ccf61b5dd41d98402cca2a9f84b488ac00000000
2020-09-16 14:47:22  [ main:969 ] - [ INFO ]  {"jsonrpc": "1.0", "id": "curltest", "method": "signrawtransactionwithkey", "params": ["020000000126f6673ec05a9220364c0e1056b93df963ffd84dc3b86ba3e76ad8c87c2fab3a0000000000ffffffff01f0d10295000000001976a91459e2fda1f209ccf61b5dd41d98402cca2a9f84b488ac00000000", ["cU3kVoRLVCMAg5ZFy66JYT5Qdn5UQNSULaZoAbfLSbRKt7ZRnYhC"],[{"txid":"3aab2f7cc8d86ae7a36bb8c34dd8ff63f93db956100e4c3620925ac03e67f626","vout":0,"scriptPubKey":"76a9147169b08e76451115bf7d75869b984ed74b0d88e188ac","amount":25.00000000}]]}
2020-09-16 14:47:22  [ main:977 ] - [ INFO ]  {"result":{"hex":"020000000126f6673ec05a9220364c0e1056b93df963ffd84dc3b86ba3e76ad8c87c2fab3a000000006a473044022062626e1afea4a2fe9121546e29e106231ef41f01f99a0e794d08f42cd180baf0022061295be01d2c49d55aab6e7df918619a5a4f211aba326ce5cb9c45221edcc43941210274f80907161cdee10351a7d24f026d0e5639d4c7f48e181ac9d3945691ec438fffffffff01f0d10295000000001976a91459e2fda1f209ccf61b5dd41d98402cca2a9f84b488ac00000000","complete":true},"error":null,"id":"curltest"}
2020-09-16 14:47:22  [ main:986 ] - [ INFO ]  {"result":"9d32dde72406ef7d9082890855502568379db6b59a17e9670fb38b202c767ff7","error":null,"id":"curltest"}
2020-09-16 16:34:00  [ main:1077 ] - [ INFO ]  {"result":"43713a4a6994206f9bf7b33a2e761093bbc47768a0d55c089f845008e9751857","error":null,"id":"curltest"}
