2020-12-11 17:30:35  [ main:2900 ] - [ INFO ]  02000000019cb21caa48376463f2e6aa549a362b3fcef2851bac8cda3d519aa40189d973010100000000ffffffff0240343605000000001976a91459e2fda1f209ccf61b5dd41d98402cca2a9f84b488aca018db39000000001976a914b3b44450db8cbb69f86b05cf13b78a336df7c1ab88ac00000000
2020-12-11 17:30:35  [ main:2902 ] - [ INFO ]  {"jsonrpc": "1.0", "id": "curltest", "method": "signrawtransactionwithkey", "params": ["02000000019cb21caa48376463f2e6aa549a362b3fcef2851bac8cda3d519aa40189d973010100000000ffffffff0240343605000000001976a91459e2fda1f209ccf61b5dd41d98402cca2a9f84b488aca018db39000000001976a914b3b44450db8cbb69f86b05cf13b78a336df7c1ab88ac00000000", ["cPuGxqYWqm9RqM6gLwnZHLGk9yS7TcPcvbW2DCtaErZt6tFwVNBQ"],[{"txid":"0173d98901a49a513dda8cac1b85f2ce3f2b369a54aae6f263643748aa1cb29c","vout":1,"scriptPubKey":"76a914b3b44450db8cbb69f86b05cf13b78a336df7c1ab88ac","amount":10.58100336}]]}
2020-12-11 17:30:36  [ main:3007 ] - [ INFO ]  {"result":{"hex":"02000000019cb21caa48376463f2e6aa549a362b3fcef2851bac8cda3d519aa40189d97301010000006a47304402205730a4210bdca6872579b7cb6434846223d0e7e07e1259ed50c0deeb06bf9f5102202c0bfeed0dc79cbf474e26a01c9688b01a96bff60cf63c34039e5e54a721300e412102a21d3a4ff6f01e251d0329e327d3d2af6cf048a594c95a3b4430b8984e6ee5eeffffffff0240343605000000001976a91459e2fda1f209ccf61b5dd41d98402cca2a9f84b488aca018db39000000001976a914b3b44450db8cbb69f86b05cf13b78a336df7c1ab88ac00000000","complete":true},"error":null,"id":"curltest"}
